{
  "_format": "hh-sol-artifact-1",
  "contractName": "StoryInteractions",
  "sourceName": "contracts/StoryInteractions.sol",
  "abi": [
    {
      "inputs": [
        {
          "internalType": "string",
          "name": "profileId",
          "type": "string"
        },
        {
          "internalType": "string",
          "name": "pageId",
          "type": "string"
        }
      ],
      "name": "doesProfileFollowStory",
      "outputs": [
        {
          "internalType": "bool",
          "name": "",
          "type": "bool"
        }
      ],
      "stateMutability": "view",
      "type": "function"
    },
    {
      "inputs": [
        {
          "internalType": "string",
          "name": "profileId",
          "type": "string"
        },
        {
          "internalType": "string",
          "name": "pageId",
          "type": "string"
        }
      ],
      "name": "doesProfileLikePage",
      "outputs": [
        {
          "internalType": "bool",
          "name": "",
          "type": "bool"
        }
      ],
      "stateMutability": "view",
      "type": "function"
    },
    {
      "inputs": [
        {
          "internalType": "string",
          "name": "profileId",
          "type": "string"
        },
        {
          "internalType": "string",
          "name": "pageId",
          "type": "string"
        }
      ],
      "name": "followStory",
      "outputs": [],
      "stateMutability": "nonpayable",
      "type": "function"
    },
    {
      "inputs": [
        {
          "internalType": "string",
          "name": "profileId",
          "type": "string"
        }
      ],
      "name": "getFollowedStories",
      "outputs": [
        {
          "internalType": "string[]",
          "name": "",
          "type": "string[]"
        }
      ],
      "stateMutability": "view",
      "type": "function"
    },
    {
      "inputs": [
        {
          "internalType": "string",
          "name": "pageId",
          "type": "string"
        }
      ],
      "name": "getPageLikes",
      "outputs": [
        {
          "internalType": "uint256",
          "name": "",
          "type": "uint256"
        }
      ],
      "stateMutability": "view",
      "type": "function"
    },
    {
      "inputs": [
        {
          "internalType": "string",
          "name": "profileId",
          "type": "string"
        },
        {
          "internalType": "string",
          "name": "pageId",
          "type": "string"
        }
      ],
      "name": "likePage",
      "outputs": [],
      "stateMutability": "nonpayable",
      "type": "function"
    },
    {
      "inputs": [
        {
          "internalType": "string",
          "name": "",
          "type": "string"
        },
        {
          "internalType": "uint256",
          "name": "",
          "type": "uint256"
        }
      ],
      "name": "pageToProfileLikes",
      "outputs": [
        {
          "internalType": "string",
          "name": "",
          "type": "string"
        }
      ],
      "stateMutability": "view",
      "type": "function"
    },
    {
      "inputs": [
        {
          "internalType": "string",
          "name": "",
          "type": "string"
        },
        {
          "internalType": "uint256",
          "name": "",
          "type": "uint256"
        }
      ],
      "name": "profileToFollowedStories",
      "outputs": [
        {
          "internalType": "string",
          "name": "",
          "type": "string"
        }
      ],
      "stateMutability": "view",
      "type": "function"
    },
    {
      "inputs": [
        {
          "internalType": "string",
          "name": "profileId",
          "type": "string"
        },
        {
          "internalType": "string",
          "name": "pageId",
          "type": "string"
        }
      ],
      "name": "unfollowStory",
      "outputs": [],
      "stateMutability": "nonpayable",
      "type": "function"
    },
    {
      "inputs": [
        {
          "internalType": "string",
          "name": "profileId",
          "type": "string"
        },
        {
          "internalType": "string",
          "name": "pageId",
          "type": "string"
        }
      ],
      "name": "unlikePage",
      "outputs": [],
      "stateMutability": "nonpayable",
      "type": "function"
    }
  ],
  "bytecode": "0x608060405234801561001057600080fd5b50611646806100206000396000f3fe608060405234801561001057600080fd5b506004361061009e5760003560e01c80636a123586116100665780636a1235861461016b5780639961d4021461019b578063afdb0e8c146101cb578063b994a280146101e7578063f252c1ca146102175761009e565b80630edf2118146100a357806317717c9f146100d35780632d28107e146100ef57806337cea5721461011f57806349f251f91461014f575b600080fd5b6100bd60048036038101906100b89190610f2e565b610233565b6040516100ca9190611012565b60405180910390f35b6100ed60048036038101906100e89190611034565b610302565b005b61010960048036038101906101049190611034565b6104ed565b60405161011691906110c7565b60405180910390f35b61013960048036038101906101349190611034565b6105fb565b60405161014691906110c7565b60405180910390f35b61016960048036038101906101649190611034565b610709565b005b610185600480360381019061018091906110e2565b6108f2565b604051610192919061113a565b60405180910390f35b6101b560048036038101906101b09190610f2e565b61091c565b6040516101c29190611012565b60405180910390f35b6101e560048036038101906101e09190611034565b6109eb565b005b61020160048036038101906101fc91906110e2565b610a91565b60405161020e9190611261565b60405180910390f35b610231600480360381019061022c9190611034565b610b88565b005b600082805160208101820180518482526020830160208501208183528095505050505050818154811061026557600080fd5b90600052602060002001600091509150508054610281906112b2565b80601f01602080910402602001604051908101604052809291908181526020018280546102ad906112b2565b80156102fa5780601f106102cf576101008083540402835291602001916102fa565b820191906000526020600020905b8154815290600101906020018083116102dd57829003601f168201915b505050505081565b60006001836040516103149190611320565b90815260200160405180910390208054905011156104e957600060018360405161033e9190611320565b908152602001604051809103902080549050905060005b818110156104e6578260405160200161036e9190611320565b604051602081830303815290604052805190602001206001856040516103949190611320565b908152602001604051809103902082815481106103b4576103b3611337565b5b906000526020600020016040516020016103ce91906113fa565b6040516020818303038152906040528051906020012014156104d3576001846040516103fa9190611320565b90815260200160405180910390206001836104159190611440565b8154811061042657610425611337565b5b906000526020600020016001856040516104409190611320565b908152602001604051809103902082815481106104605761045f611337565b5b90600052602060002001908054610476906112b2565b610481929190610c2e565b506001846040516104929190611320565b90815260200160405180910390208054806104b0576104af611474565b5b6001900381819060005260206000200160006104cc9190610cbb565b90556104e6565b80806104de906114a3565b915050610355565b50505b5050565b6000806000836040516105009190611320565b90815260200160405180910390208054905011156105f05760005b60008360405161052b9190611320565b9081526020016040518091039020805490508110156105ee57836040516020016105559190611320565b6040516020818303038152906040528051906020012060008460405161057b9190611320565b9081526020016040518091039020828154811061059b5761059a611337565b5b906000526020600020016040516020016105b591906113fa565b6040516020818303038152906040528051906020012014156105db5760019150506105f5565b80806105e6906114a3565b91505061051b565b505b600090505b92915050565b60008060018460405161060e9190611320565b90815260200160405180910390208054905011156106fe5760005b6001846040516106399190611320565b9081526020016040518091039020805490508110156106fc57826040516020016106639190611320565b604051602081830303815290604052805190602001206001856040516106899190611320565b908152602001604051809103902082815481106106a9576106a8611337565b5b906000526020600020016040516020016106c391906113fa565b6040516020818303038152906040528051906020012014156106e9576001915050610703565b80806106f4906114a3565b915050610629565b505b600090505b92915050565b6000808260405161071a9190611320565b90815260200160405180910390208054905011156108ee57600080826040516107439190611320565b908152602001604051809103902080549050905060005b818110156108eb57836040516020016107739190611320565b604051602081830303815290604052805190602001206000846040516107999190611320565b908152602001604051809103902082815481106107b9576107b8611337565b5b906000526020600020016040516020016107d391906113fa565b6040516020818303038152906040528051906020012014156108d8576000836040516107ff9190611320565b908152602001604051809103902060018361081a9190611440565b8154811061082b5761082a611337565b5b906000526020600020016000846040516108459190611320565b9081526020016040518091039020828154811061086557610864611337565b5b9060005260206000200190805461087b906112b2565b610886929190610c2e565b506000836040516108979190611320565b90815260200160405180910390208054806108b5576108b4611474565b5b6001900381819060005260206000200160006108d19190610cbb565b90556108eb565b80806108e3906114a3565b91505061075a565b50505b5050565b600080826040516109039190611320565b9081526020016040518091039020805490509050919050565b600182805160208101820180518482526020830160208501208183528095505050505050818154811061094e57600080fd5b9060005260206000200160009150915050805461096a906112b2565b80601f0160208091040260200160405190810160405280929190818152602001828054610996906112b2565b80156109e35780601f106109b8576101008083540402835291602001916109e3565b820191906000526020600020905b8154815290600101906020018083116109c657829003601f168201915b505050505081565b6109f582826105fb565b15610a35576040517f08c379a0000000000000000000000000000000000000000000000000000000008152600401610a2c9061155e565b60405180910390fd5b600182604051610a459190611320565b908152602001604051809103902081908060018154018082558091505060019003906000526020600020016000909190919091509080519060200190610a8c929190610cfb565b505050565b6060600182604051610aa39190611320565b9081526020016040518091039020805480602002602001604051908101604052809291908181526020016000905b82821015610b7d578382906000526020600020018054610af0906112b2565b80601f0160208091040260200160405190810160405280929190818152602001828054610b1c906112b2565b8015610b695780601f10610b3e57610100808354040283529160200191610b69565b820191906000526020600020905b815481529060010190602001808311610b4c57829003601f168201915b505050505081526020019060010190610ad1565b505050509050919050565b610b9282826104ed565b15610bd2576040517f08c379a0000000000000000000000000000000000000000000000000000000008152600401610bc9906115f0565b60405180910390fd5b600081604051610be29190611320565b908152602001604051809103902082908060018154018082558091505060019003906000526020600020016000909190919091509080519060200190610c29929190610cfb565b505050565b828054610c3a906112b2565b90600052602060002090601f016020900481019282610c5c5760008555610caa565b82601f10610c6d5780548555610caa565b82800160010185558215610caa57600052602060002091601f016020900482015b82811115610ca9578254825591600101919060010190610c8e565b5b509050610cb79190610d81565b5090565b508054610cc7906112b2565b6000825580601f10610cd95750610cf8565b601f016020900490600052602060002090810190610cf79190610d81565b5b50565b828054610d07906112b2565b90600052602060002090601f016020900481019282610d295760008555610d70565b82601f10610d4257805160ff1916838001178555610d70565b82800160010185558215610d70579182015b82811115610d6f578251825591602001919060010190610d54565b5b509050610d7d9190610d81565b5090565b5b80821115610d9a576000816000905550600101610d82565b5090565b6000604051905090565b600080fd5b600080fd5b600080fd5b600080fd5b6000601f19601f8301169050919050565b7f4e487b7100000000000000000000000000000000000000000000000000000000600052604160045260246000fd5b610e0582610dbc565b810181811067ffffffffffffffff82111715610e2457610e23610dcd565b5b80604052505050565b6000610e37610d9e565b9050610e438282610dfc565b919050565b600067ffffffffffffffff821115610e6357610e62610dcd565b5b610e6c82610dbc565b9050602081019050919050565b82818337600083830152505050565b6000610e9b610e9684610e48565b610e2d565b905082815260208101848484011115610eb757610eb6610db7565b5b610ec2848285610e79565b509392505050565b600082601f830112610edf57610ede610db2565b5b8135610eef848260208601610e88565b91505092915050565b6000819050919050565b610f0b81610ef8565b8114610f1657600080fd5b50565b600081359050610f2881610f02565b92915050565b60008060408385031215610f4557610f44610da8565b5b600083013567ffffffffffffffff811115610f6357610f62610dad565b5b610f6f85828601610eca565b9250506020610f8085828601610f19565b9150509250929050565b600081519050919050565b600082825260208201905092915050565b60005b83811015610fc4578082015181840152602081019050610fa9565b83811115610fd3576000848401525b50505050565b6000610fe482610f8a565b610fee8185610f95565b9350610ffe818560208601610fa6565b61100781610dbc565b840191505092915050565b6000602082019050818103600083015261102c8184610fd9565b905092915050565b6000806040838503121561104b5761104a610da8565b5b600083013567ffffffffffffffff81111561106957611068610dad565b5b61107585828601610eca565b925050602083013567ffffffffffffffff81111561109657611095610dad565b5b6110a285828601610eca565b9150509250929050565b60008115159050919050565b6110c1816110ac565b82525050565b60006020820190506110dc60008301846110b8565b92915050565b6000602082840312156110f8576110f7610da8565b5b600082013567ffffffffffffffff81111561111657611115610dad565b5b61112284828501610eca565b91505092915050565b61113481610ef8565b82525050565b600060208201905061114f600083018461112b565b92915050565b600081519050919050565b600082825260208201905092915050565b6000819050602082019050919050565b600082825260208201905092915050565b600061119d82610f8a565b6111a78185611181565b93506111b7818560208601610fa6565b6111c081610dbc565b840191505092915050565b60006111d78383611192565b905092915050565b6000602082019050919050565b60006111f782611155565b6112018185611160565b93508360208202850161121385611171565b8060005b8581101561124f578484038952815161123085826111cb565b945061123b836111df565b925060208a01995050600181019050611217565b50829750879550505050505092915050565b6000602082019050818103600083015261127b81846111ec565b905092915050565b7f4e487b7100000000000000000000000000000000000000000000000000000000600052602260045260246000fd5b600060028204905060018216806112ca57607f821691505b602082108114156112de576112dd611283565b5b50919050565b600081905092915050565b60006112fa82610f8a565b61130481856112e4565b9350611314818560208601610fa6565b80840191505092915050565b600061132c82846112ef565b915081905092915050565b7f4e487b7100000000000000000000000000000000000000000000000000000000600052603260045260246000fd5b60008190508160005260206000209050919050565b60008154611388816112b2565b61139281866112e4565b945060018216600081146113ad57600181146113be576113f1565b60ff198316865281860193506113f1565b6113c785611366565b60005b838110156113e9578154818901526001820191506020810190506113ca565b838801955050505b50505092915050565b6000611406828461137b565b915081905092915050565b7f4e487b7100000000000000000000000000000000000000000000000000000000600052601160045260246000fd5b600061144b82610ef8565b915061145683610ef8565b92508282101561146957611468611411565b5b828203905092915050565b7f4e487b7100000000000000000000000000000000000000000000000000000000600052603160045260246000fd5b60006114ae82610ef8565b91507fffffffffffffffffffffffffffffffffffffffffffffffffffffffffffffffff8214156114e1576114e0611411565b5b600182019050919050565b7f546869732070726f66696c6520616c726561647920666f6c6c6f77732074686960008201527f732073746f727900000000000000000000000000000000000000000000000000602082015250565b6000611548602783610f95565b9150611553826114ec565b604082019050919050565b600060208201905081810360008301526115778161153b565b9050919050565b7f546869732070726f66696c6520616c7265616479206c696b657320746869732060008201527f7061676500000000000000000000000000000000000000000000000000000000602082015250565b60006115da602483610f95565b91506115e58261157e565b604082019050919050565b60006020820190508181036000830152611609816115cd565b905091905056fea264697066735822122007442fe86b35f92b76a5bc3b9ad22b1342e12bb6b8a7c2e7ff36693872fd5d5c64736f6c63430008090033",
  "linkReferences": {},
  "deployedLinkReferences": {}
}